{
  "_format": "hh-sol-artifact-1",
  "contractName": "StarstruckNFT",
  "sourceName": "contracts/StarstruckNFT.sol",
  "abi": [
    {
      "inputs": [
        {
          "internalType": "string",
          "name": "_name",
          "type": "string"
        },
        {
          "internalType": "string",
          "name": "_symbol",
          "type": "string"
        },
        {
          "internalType": "uint256",
          "name": "_maxSupply",
          "type": "uint256"
        },
        {
          "internalType": "string",
          "name": "_initBaseURI",
          "type": "string"
        }
      ],
      "stateMutability": "nonpayable",
      "type": "constructor"
    },
    {
      "anonymous": false,
      "inputs": [
        {
          "indexed": true,
          "internalType": "address",
          "name": "owner",
          "type": "address"
        },
        {
          "indexed": true,
          "internalType": "address",
          "name": "approved",
          "type": "address"
        },
        {
          "indexed": true,
          "internalType": "uint256",
          "name": "tokenId",
          "type": "uint256"
        }
      ],
      "name": "Approval",
      "type": "event"
    },
    {
      "anonymous": false,
      "inputs": [
        {
          "indexed": true,
          "internalType": "address",
          "name": "owner",
          "type": "address"
        },
        {
          "indexed": true,
          "internalType": "address",
          "name": "operator",
          "type": "address"
        },
        {
          "indexed": false,
          "internalType": "bool",
          "name": "approved",
          "type": "bool"
        }
      ],
      "name": "ApprovalForAll",
      "type": "event"
    },
    {
      "anonymous": false,
      "inputs": [
        {
          "indexed": true,
          "internalType": "address",
          "name": "previousOwner",
          "type": "address"
        },
        {
          "indexed": true,
          "internalType": "address",
          "name": "newOwner",
          "type": "address"
        }
      ],
      "name": "OwnershipTransferred",
      "type": "event"
    },
    {
      "anonymous": false,
      "inputs": [
        {
          "indexed": true,
          "internalType": "address",
          "name": "from",
          "type": "address"
        },
        {
          "indexed": true,
          "internalType": "address",
          "name": "to",
          "type": "address"
        },
        {
          "indexed": true,
          "internalType": "uint256",
          "name": "tokenId",
          "type": "uint256"
        }
      ],
      "name": "Transfer",
      "type": "event"
    },
    {
      "inputs": [
        {
          "internalType": "address",
          "name": "to",
          "type": "address"
        },
        {
          "internalType": "uint256",
          "name": "tokenId",
          "type": "uint256"
        }
      ],
      "name": "approve",
      "outputs": [],
      "stateMutability": "nonpayable",
      "type": "function"
    },
    {
      "inputs": [
        {
          "internalType": "address",
          "name": "owner",
          "type": "address"
        }
      ],
      "name": "balanceOf",
      "outputs": [
        {
          "internalType": "uint256",
          "name": "",
          "type": "uint256"
        }
      ],
      "stateMutability": "view",
      "type": "function"
    },
    {
      "inputs": [
        {
          "internalType": "uint256",
          "name": "tokenId",
          "type": "uint256"
        }
      ],
      "name": "getApproved",
      "outputs": [
        {
          "internalType": "address",
          "name": "",
          "type": "address"
        }
      ],
      "stateMutability": "view",
      "type": "function"
    },
    {
      "inputs": [
        {
          "internalType": "address",
          "name": "account",
          "type": "address"
        }
      ],
      "name": "getNftUriOfAccount",
      "outputs": [
        {
          "internalType": "string",
          "name": "",
          "type": "string"
        }
      ],
      "stateMutability": "view",
      "type": "function"
    },
    {
      "inputs": [
        {
          "internalType": "address",
          "name": "owner",
          "type": "address"
        },
        {
          "internalType": "address",
          "name": "operator",
          "type": "address"
        }
      ],
      "name": "isApprovedForAll",
      "outputs": [
        {
          "internalType": "bool",
          "name": "",
          "type": "bool"
        }
      ],
      "stateMutability": "view",
      "type": "function"
    },
    {
      "inputs": [],
      "name": "isOwner",
      "outputs": [
        {
          "internalType": "bool",
          "name": "",
          "type": "bool"
        }
      ],
      "stateMutability": "view",
      "type": "function"
    },
    {
      "inputs": [
        {
          "internalType": "address",
          "name": "receiver",
          "type": "address"
        }
      ],
      "name": "mintTo",
      "outputs": [],
      "stateMutability": "nonpayable",
      "type": "function"
    },
    {
      "inputs": [],
      "name": "name",
      "outputs": [
        {
          "internalType": "string",
          "name": "",
          "type": "string"
        }
      ],
      "stateMutability": "view",
      "type": "function"
    },
    {
      "inputs": [],
      "name": "owner",
      "outputs": [
        {
          "internalType": "address",
          "name": "",
          "type": "address"
        }
      ],
      "stateMutability": "view",
      "type": "function"
    },
    {
      "inputs": [
        {
          "internalType": "uint256",
          "name": "tokenId",
          "type": "uint256"
        }
      ],
      "name": "ownerOf",
      "outputs": [
        {
          "internalType": "address",
          "name": "",
          "type": "address"
        }
      ],
      "stateMutability": "view",
      "type": "function"
    },
    {
      "inputs": [],
      "name": "renounceOwnership",
      "outputs": [],
      "stateMutability": "nonpayable",
      "type": "function"
    },
    {
      "inputs": [
        {
          "internalType": "address",
          "name": "from",
          "type": "address"
        },
        {
          "internalType": "address",
          "name": "to",
          "type": "address"
        },
        {
          "internalType": "uint256",
          "name": "tokenId",
          "type": "uint256"
        }
      ],
      "name": "safeTransferFrom",
      "outputs": [],
      "stateMutability": "nonpayable",
      "type": "function"
    },
    {
      "inputs": [
        {
          "internalType": "address",
          "name": "from",
          "type": "address"
        },
        {
          "internalType": "address",
          "name": "to",
          "type": "address"
        },
        {
          "internalType": "uint256",
          "name": "tokenId",
          "type": "uint256"
        },
        {
          "internalType": "bytes",
          "name": "_data",
          "type": "bytes"
        }
      ],
      "name": "safeTransferFrom",
      "outputs": [],
      "stateMutability": "nonpayable",
      "type": "function"
    },
    {
      "inputs": [
        {
          "internalType": "address",
          "name": "operator",
          "type": "address"
        },
        {
          "internalType": "bool",
          "name": "approved",
          "type": "bool"
        }
      ],
      "name": "setApprovalForAll",
      "outputs": [],
      "stateMutability": "nonpayable",
      "type": "function"
    },
    {
      "inputs": [
        {
          "internalType": "string",
          "name": "_newBaseURI",
          "type": "string"
        }
      ],
      "name": "setBaseURI",
      "outputs": [],
      "stateMutability": "nonpayable",
      "type": "function"
    },
    {
      "inputs": [],
      "name": "setPaused",
      "outputs": [],
      "stateMutability": "nonpayable",
      "type": "function"
    },
    {
      "inputs": [],
      "name": "setUnpaused",
      "outputs": [],
      "stateMutability": "nonpayable",
      "type": "function"
    },
    {
      "inputs": [
        {
          "internalType": "bytes4",
          "name": "interfaceId",
          "type": "bytes4"
        }
      ],
      "name": "supportsInterface",
      "outputs": [
        {
          "internalType": "bool",
          "name": "",
          "type": "bool"
        }
      ],
      "stateMutability": "view",
      "type": "function"
    },
    {
      "inputs": [],
      "name": "symbol",
      "outputs": [
        {
          "internalType": "string",
          "name": "",
          "type": "string"
        }
      ],
      "stateMutability": "view",
      "type": "function"
    },
    {
      "inputs": [
        {
          "internalType": "uint256",
          "name": "index",
          "type": "uint256"
        }
      ],
      "name": "tokenByIndex",
      "outputs": [
        {
          "internalType": "uint256",
          "name": "",
          "type": "uint256"
        }
      ],
      "stateMutability": "view",
      "type": "function"
    },
    {
      "inputs": [
        {
          "internalType": "address",
          "name": "owner",
          "type": "address"
        },
        {
          "internalType": "uint256",
          "name": "index",
          "type": "uint256"
        }
      ],
      "name": "tokenOfOwnerByIndex",
      "outputs": [
        {
          "internalType": "uint256",
          "name": "",
          "type": "uint256"
        }
      ],
      "stateMutability": "view",
      "type": "function"
    },
    {
      "inputs": [
        {
          "internalType": "uint256",
          "name": "tokenId",
          "type": "uint256"
        }
      ],
      "name": "tokenURI",
      "outputs": [
        {
          "internalType": "string",
          "name": "",
          "type": "string"
        }
      ],
      "stateMutability": "view",
      "type": "function"
    },
    {
      "inputs": [],
      "name": "totalSupply",
      "outputs": [
        {
          "internalType": "uint256",
          "name": "",
          "type": "uint256"
        }
      ],
      "stateMutability": "view",
      "type": "function"
    },
    {
      "inputs": [
        {
          "internalType": "address",
          "name": "from",
          "type": "address"
        },
        {
          "internalType": "address",
          "name": "to",
          "type": "address"
        },
        {
          "internalType": "uint256",
          "name": "tokenId",
          "type": "uint256"
        }
      ],
      "name": "transferFrom",
      "outputs": [],
      "stateMutability": "nonpayable",
      "type": "function"
    },
    {
      "inputs": [
        {
          "internalType": "address",
          "name": "newOwner",
          "type": "address"
        }
      ],
      "name": "transferOwnership",
      "outputs": [],
      "stateMutability": "nonpayable",
      "type": "function"
    }
  ],
  "bytecode": "0x60806040526000600e60006101000a81548160ff0219169083151502179055503480156200002c57600080fd5b5060405162003ff738038062003ff78339818101604052810190620000529190620003a6565b838381600090805190602001906200006c9291906200026d565b508060019080519060200190620000859291906200026d565b505050620000a86200009c620000ca60201b60201c565b620000d260201b60201c565b620000b9816200019860201b60201c565b81600d819055505050505062000674565b600033905090565b6000600660009054906101000a900473ffffffffffffffffffffffffffffffffffffffff16905081600660006101000a81548173ffffffffffffffffffffffffffffffffffffffff021916908373ffffffffffffffffffffffffffffffffffffffff1602179055508173ffffffffffffffffffffffffffffffffffffffff168173ffffffffffffffffffffffffffffffffffffffff167f8be0079c531659141344cd1fd0a4f28419497f9722a3daafe3b4186f6b6457e060405160405180910390a35050565b620001a8620000ca60201b60201c565b73ffffffffffffffffffffffffffffffffffffffff16620001ce6200024360201b60201c565b73ffffffffffffffffffffffffffffffffffffffff161462000227576040517f08c379a00000000000000000000000000000000000000000000000000000000081526004016200021e9062000484565b60405180910390fd5b80600c90805190602001906200023f9291906200026d565b5050565b6000600660009054906101000a900473ffffffffffffffffffffffffffffffffffffffff16905090565b8280546200027b9062000556565b90600052602060002090601f0160209004810192826200029f5760008555620002eb565b82601f10620002ba57805160ff1916838001178555620002eb565b82800160010185558215620002eb579182015b82811115620002ea578251825591602001919060010190620002cd565b5b509050620002fa9190620002fe565b5090565b5b8082111562000319576000816000905550600101620002ff565b5090565b6000620003346200032e84620004cf565b620004a6565b9050828152602081018484840111156200034d57600080fd5b6200035a84828562000520565b509392505050565b600082601f8301126200037457600080fd5b8151620003868482602086016200031d565b91505092915050565b600081519050620003a0816200065a565b92915050565b60008060008060808587031215620003bd57600080fd5b600085015167ffffffffffffffff811115620003d857600080fd5b620003e68782880162000362565b945050602085015167ffffffffffffffff8111156200040457600080fd5b620004128782880162000362565b935050604062000425878288016200038f565b925050606085015167ffffffffffffffff8111156200044357600080fd5b620004518782880162000362565b91505092959194509250565b60006200046c60208362000505565b9150620004798262000631565b602082019050919050565b600060208201905081810360008301526200049f816200045d565b9050919050565b6000620004b2620004c5565b9050620004c082826200058c565b919050565b6000604051905090565b600067ffffffffffffffff821115620004ed57620004ec620005f1565b5b620004f88262000620565b9050602081019050919050565b600082825260208201905092915050565b6000819050919050565b60005b838110156200054057808201518184015260208101905062000523565b8381111562000550576000848401525b50505050565b600060028204905060018216806200056f57607f821691505b60208210811415620005865762000585620005c2565b5b50919050565b620005978262000620565b810181811067ffffffffffffffff82111715620005b957620005b8620005f1565b5b80604052505050565b7f4e487b7100000000000000000000000000000000000000000000000000000000600052602260045260246000fd5b7f4e487b7100000000000000000000000000000000000000000000000000000000600052604160045260246000fd5b6000601f19601f8301169050919050565b7f4f776e61626c653a2063616c6c6572206973206e6f7420746865206f776e6572600082015250565b620006658162000516565b81146200067157600080fd5b50565b61397380620006846000396000f3fe608060405234801561001057600080fd5b50600436106101735760003560e01c806355f804b3116100de5780638f32d59b11610097578063b88d4fde11610071578063b88d4fde14610424578063c87b56dd14610440578063e985e9c514610470578063f2fde38b146104a057610173565b80638f32d59b146103cc57806395d89b41146103ea578063a22cb4651461040857610173565b806355f804b31461030c5780636352211e1461032857806370a0823114610358578063715018a614610388578063755edd17146103925780638da5cb5b146103ae57610173565b80632f745c59116101305780632f745c591461024c57806337a66d851461027c5780633c89edce1461028657806342842e0e146102905780634336bfda146102ac5780634f6ccce7146102dc57610173565b806301ffc9a71461017857806306fdde03146101a8578063081812fc146101c6578063095ea7b3146101f657806318160ddd1461021257806323b872dd14610230575b600080fd5b610192600480360381019061018d919061288a565b6104bc565b60405161019f9190612d45565b60405180910390f35b6101b06104ce565b6040516101bd9190612d60565b60405180910390f35b6101e060048036038101906101db919061291d565b610560565b6040516101ed9190612cde565b60405180910390f35b610210600480360381019061020b919061284e565b6105e5565b005b61021a6106fd565b6040516102279190612fc2565b60405180910390f35b61024a60048036038101906102459190612748565b61070a565b005b6102666004803603810190610261919061284e565b61076a565b6040516102739190612fc2565b60405180910390f35b61028461080f565b005b61028e6108a8565b005b6102aa60048036038101906102a59190612748565b610941565b005b6102c660048036038101906102c191906126e3565b610961565b6040516102d39190612d60565b60405180910390f35b6102f660048036038101906102f1919061291d565b610983565b6040516103039190612fc2565b60405180910390f35b610326600480360381019061032191906128dc565b610a1a565b005b610342600480360381019061033d919061291d565b610ab0565b60405161034f9190612cde565b60405180910390f35b610372600480360381019061036d91906126e3565b610b62565b60405161037f9190612fc2565b60405180910390f35b610390610c1a565b005b6103ac60048036038101906103a791906126e3565b610ca2565b005b6103b6610d85565b6040516103c39190612cde565b60405180910390f35b6103d4610daf565b6040516103e19190612d45565b60405180910390f35b6103f2610dec565b6040516103ff9190612d60565b60405180910390f35b610422600480360381019061041d9190612812565b610e7e565b005b61043e60048036038101906104399190612797565b610e94565b005b61045a6004803603810190610455919061291d565b610ef6565b6040516104679190612d60565b60405180910390f35b61048a6004803603810190610485919061270c565b610f9e565b6040516104979190612d45565b60405180910390f35b6104ba60048036038101906104b591906126e3565b611032565b005b60006104c78261112a565b9050919050565b6060600080546104dd90613218565b80601f016020809104026020016040519081016040528092919081815260200182805461050990613218565b80156105565780601f1061052b57610100808354040283529160200191610556565b820191906000526020600020905b81548152906001019060200180831161053957829003601f168201915b5050505050905090565b600061056b826111a4565b6105aa576040517f08c379a00000000000000000000000000000000000000000000000000000000081526004016105a190612f02565b60405180910390fd5b6004600083815260200190815260200160002060009054906101000a900473ffffffffffffffffffffffffffffffffffffffff169050919050565b60006105f082610ab0565b90508073ffffffffffffffffffffffffffffffffffffffff168373ffffffffffffffffffffffffffffffffffffffff161415610661576040517f08c379a000000000000000000000000000000000000000000000000000000000815260040161065890612f62565b60405180910390fd5b8073ffffffffffffffffffffffffffffffffffffffff16610680611210565b73ffffffffffffffffffffffffffffffffffffffff1614806106af57506106ae816106a9611210565b610f9e565b5b6106ee576040517f08c379a00000000000000000000000000000000000000000000000000000000081526004016106e590612e82565b60405180910390fd5b6106f88383611218565b505050565b6000600980549050905090565b61071b610715611210565b826112d1565b61075a576040517f08c379a000000000000000000000000000000000000000000000000000000000815260040161075190612f82565b60405180910390fd5b6107658383836113af565b505050565b600061077583610b62565b82106107b6576040517f08c379a00000000000000000000000000000000000000000000000000000000081526004016107ad90612d82565b60405180910390fd5b600760008473ffffffffffffffffffffffffffffffffffffffff1673ffffffffffffffffffffffffffffffffffffffff168152602001908152602001600020600083815260200190815260200160002054905092915050565b610817611210565b73ffffffffffffffffffffffffffffffffffffffff16610835610d85565b73ffffffffffffffffffffffffffffffffffffffff161461088b576040517f08c379a000000000000000000000000000000000000000000000000000000000815260040161088290612f22565b60405180910390fd5b6001600e60006101000a81548160ff021916908315150217905550565b6108b0611210565b73ffffffffffffffffffffffffffffffffffffffff166108ce610d85565b73ffffffffffffffffffffffffffffffffffffffff1614610924576040517f08c379a000000000000000000000000000000000000000000000000000000000815260040161091b90612f22565b60405180910390fd5b6000600e60006101000a81548160ff021916908315150217905550565b61095c83838360405180602001604052806000815250610e94565b505050565b6060600061097083600061076a565b905061097b81610ef6565b915050919050565b600061098d6106fd565b82106109ce576040517f08c379a00000000000000000000000000000000000000000000000000000000081526004016109c590612fa2565b60405180910390fd5b60098281548110610a08577f4e487b7100000000000000000000000000000000000000000000000000000000600052603260045260246000fd5b90600052602060002001549050919050565b610a22611210565b73ffffffffffffffffffffffffffffffffffffffff16610a40610d85565b73ffffffffffffffffffffffffffffffffffffffff1614610a96576040517f08c379a0000000000000000000000000000000000000000000000000000000008152600401610a8d90612f22565b60405180910390fd5b80600c9080519060200190610aac929190612507565b5050565b6000806002600084815260200190815260200160002060009054906101000a900473ffffffffffffffffffffffffffffffffffffffff169050600073ffffffffffffffffffffffffffffffffffffffff168173ffffffffffffffffffffffffffffffffffffffff161415610b59576040517f08c379a0000000000000000000000000000000000000000000000000000000008152600401610b5090612ec2565b60405180910390fd5b80915050919050565b60008073ffffffffffffffffffffffffffffffffffffffff168273ffffffffffffffffffffffffffffffffffffffff161415610bd3576040517f08c379a0000000000000000000000000000000000000000000000000000000008152600401610bca90612ea2565b60405180910390fd5b600360008373ffffffffffffffffffffffffffffffffffffffff1673ffffffffffffffffffffffffffffffffffffffff168152602001908152602001600020549050919050565b610c22611210565b73ffffffffffffffffffffffffffffffffffffffff16610c40610d85565b73ffffffffffffffffffffffffffffffffffffffff1614610c96576040517f08c379a0000000000000000000000000000000000000000000000000000000008152600401610c8d90612f22565b60405180910390fd5b610ca06000611616565b565b610caa611210565b73ffffffffffffffffffffffffffffffffffffffff16610cc8610d85565b73ffffffffffffffffffffffffffffffffffffffff1614610d1e576040517f08c379a0000000000000000000000000000000000000000000000000000000008152600401610d1590612f22565b60405180910390fd5b600e60009054906101000a900460ff1615610d3857600080fd5b6001610d4382610b62565b10610d4d57600080fd5b610d57600b6116dc565b610d61600b6116f2565b600d541015610d6f57600080fd5b610d8281610d7d600b6116f2565b611700565b50565b6000600660009054906101000a900473ffffffffffffffffffffffffffffffffffffffff16905090565b6000610db9610d85565b73ffffffffffffffffffffffffffffffffffffffff163373ffffffffffffffffffffffffffffffffffffffff1614905090565b606060018054610dfb90613218565b80601f0160208091040260200160405190810160405280929190818152602001828054610e2790613218565b8015610e745780601f10610e4957610100808354040283529160200191610e74565b820191906000526020600020905b815481529060010190602001808311610e5757829003601f168201915b5050505050905090565b610e90610e89611210565b838361171e565b5050565b610ea5610e9f611210565b836112d1565b610ee4576040517f08c379a0000000000000000000000000000000000000000000000000000000008152600401610edb90612f82565b60405180910390fd5b610ef08484848461188b565b50505050565b6060610f01826111a4565b610f40576040517f08c379a0000000000000000000000000000000000000000000000000000000008152600401610f3790612f42565b60405180910390fd5b6000610f4a6118e7565b5111610f655760405180602001604052806000815250610f97565b610f6d6118e7565b610f7683611979565b604051602001610f87929190612caf565b6040516020818303038152906040525b9050919050565b6000600560008473ffffffffffffffffffffffffffffffffffffffff1673ffffffffffffffffffffffffffffffffffffffff16815260200190815260200160002060008373ffffffffffffffffffffffffffffffffffffffff1673ffffffffffffffffffffffffffffffffffffffff16815260200190815260200160002060009054906101000a900460ff16905092915050565b61103a611210565b73ffffffffffffffffffffffffffffffffffffffff16611058610d85565b73ffffffffffffffffffffffffffffffffffffffff16146110ae576040517f08c379a00000000000000000000000000000000000000000000000000000000081526004016110a590612f22565b60405180910390fd5b600073ffffffffffffffffffffffffffffffffffffffff168173ffffffffffffffffffffffffffffffffffffffff16141561111e576040517f08c379a000000000000000000000000000000000000000000000000000000000815260040161111590612dc2565b60405180910390fd5b61112781611616565b50565b60007f780e9d63000000000000000000000000000000000000000000000000000000007bffffffffffffffffffffffffffffffffffffffffffffffffffffffff1916827bffffffffffffffffffffffffffffffffffffffffffffffffffffffff1916148061119d575061119c82611b26565b5b9050919050565b60008073ffffffffffffffffffffffffffffffffffffffff166002600084815260200190815260200160002060009054906101000a900473ffffffffffffffffffffffffffffffffffffffff1673ffffffffffffffffffffffffffffffffffffffff1614159050919050565b600033905090565b816004600083815260200190815260200160002060006101000a81548173ffffffffffffffffffffffffffffffffffffffff021916908373ffffffffffffffffffffffffffffffffffffffff160217905550808273ffffffffffffffffffffffffffffffffffffffff1661128b83610ab0565b73ffffffffffffffffffffffffffffffffffffffff167f8c5be1e5ebec7d5bd14f71427d1e84f3dd0314c0f7b2291e5b200ac8c7c3b92560405160405180910390a45050565b60006112dc826111a4565b61131b576040517f08c379a000000000000000000000000000000000000000000000000000000000815260040161131290612e62565b60405180910390fd5b600061132683610ab0565b90508073ffffffffffffffffffffffffffffffffffffffff168473ffffffffffffffffffffffffffffffffffffffff16148061139557508373ffffffffffffffffffffffffffffffffffffffff1661137d84610560565b73ffffffffffffffffffffffffffffffffffffffff16145b806113a657506113a58185610f9e565b5b91505092915050565b8273ffffffffffffffffffffffffffffffffffffffff166113cf82610ab0565b73ffffffffffffffffffffffffffffffffffffffff1614611425576040517f08c379a000000000000000000000000000000000000000000000000000000000815260040161141c90612de2565b60405180910390fd5b600073ffffffffffffffffffffffffffffffffffffffff168273ffffffffffffffffffffffffffffffffffffffff161415611495576040517f08c379a000000000000000000000000000000000000000000000000000000000815260040161148c90612e22565b60405180910390fd5b6114a0838383611c08565b6114ab600082611218565b6001600360008573ffffffffffffffffffffffffffffffffffffffff1673ffffffffffffffffffffffffffffffffffffffff16815260200190815260200160002060008282546114fb919061312e565b925050819055506001600360008473ffffffffffffffffffffffffffffffffffffffff1673ffffffffffffffffffffffffffffffffffffffff168152602001908152602001600020600082825461155291906130a7565b92505081905550816002600083815260200190815260200160002060006101000a81548173ffffffffffffffffffffffffffffffffffffffff021916908373ffffffffffffffffffffffffffffffffffffffff160217905550808273ffffffffffffffffffffffffffffffffffffffff168473ffffffffffffffffffffffffffffffffffffffff167fddf252ad1be2c89b69c2b068fc378daa952ba7f163c4a11628f55a4df523b3ef60405160405180910390a4611611838383611c18565b505050565b6000600660009054906101000a900473ffffffffffffffffffffffffffffffffffffffff16905081600660006101000a81548173ffffffffffffffffffffffffffffffffffffffff021916908373ffffffffffffffffffffffffffffffffffffffff1602179055508173ffffffffffffffffffffffffffffffffffffffff168173ffffffffffffffffffffffffffffffffffffffff167f8be0079c531659141344cd1fd0a4f28419497f9722a3daafe3b4186f6b6457e060405160405180910390a35050565b6001816000016000828254019250508190555050565b600081600001549050919050565b61171a828260405180602001604052806000815250611c1d565b5050565b8173ffffffffffffffffffffffffffffffffffffffff168373ffffffffffffffffffffffffffffffffffffffff16141561178d576040517f08c379a000000000000000000000000000000000000000000000000000000000815260040161178490612e42565b60405180910390fd5b80600560008573ffffffffffffffffffffffffffffffffffffffff1673ffffffffffffffffffffffffffffffffffffffff16815260200190815260200160002060008473ffffffffffffffffffffffffffffffffffffffff1673ffffffffffffffffffffffffffffffffffffffff16815260200190815260200160002060006101000a81548160ff0219169083151502179055508173ffffffffffffffffffffffffffffffffffffffff168373ffffffffffffffffffffffffffffffffffffffff167f17307eab39ab6107e8899845ad3d59bd9653f200f220920489ca2b5937696c318360405161187e9190612d45565b60405180910390a3505050565b6118968484846113af565b6118a284848484611c78565b6118e1576040517f08c379a00000000000000000000000000000000000000000000000000000000081526004016118d890612da2565b60405180910390fd5b50505050565b6060600c80546118f690613218565b80601f016020809104026020016040519081016040528092919081815260200182805461192290613218565b801561196f5780601f106119445761010080835404028352916020019161196f565b820191906000526020600020905b81548152906001019060200180831161195257829003601f168201915b5050505050905090565b606060008214156119c1576040518060400160405280600181526020017f30000000000000000000000000000000000000000000000000000000000000008152509050611b21565b600082905060005b600082146119f35780806119dc9061327b565b915050600a826119ec91906130fd565b91506119c9565b60008167ffffffffffffffff811115611a35577f4e487b7100000000000000000000000000000000000000000000000000000000600052604160045260246000fd5b6040519080825280601f01601f191660200182016040528015611a675781602001600182028036833780820191505090505b5090505b60008514611b1a57600182611a80919061312e565b9150600a85611a8f91906132c4565b6030611a9b91906130a7565b60f81b818381518110611ad7577f4e487b7100000000000000000000000000000000000000000000000000000000600052603260045260246000fd5b60200101907effffffffffffffffffffffffffffffffffffffffffffffffffffffffffffff1916908160001a905350600a85611b1391906130fd565b9450611a6b565b8093505050505b919050565b60007f80ac58cd000000000000000000000000000000000000000000000000000000007bffffffffffffffffffffffffffffffffffffffffffffffffffffffff1916827bffffffffffffffffffffffffffffffffffffffffffffffffffffffff19161480611bf157507f5b5e139f000000000000000000000000000000000000000000000000000000007bffffffffffffffffffffffffffffffffffffffffffffffffffffffff1916827bffffffffffffffffffffffffffffffffffffffffffffffffffffffff1916145b80611c015750611c0082611e0f565b5b9050919050565b611c13838383611e79565b505050565b505050565b611c278383611f8d565b611c346000848484611c78565b611c73576040517f08c379a0000000000000000000000000000000000000000000000000000000008152600401611c6a90612da2565b60405180910390fd5b505050565b6000611c998473ffffffffffffffffffffffffffffffffffffffff16612167565b15611e02578373ffffffffffffffffffffffffffffffffffffffff1663150b7a02611cc2611210565b8786866040518563ffffffff1660e01b8152600401611ce49493929190612cf9565b602060405180830381600087803b158015611cfe57600080fd5b505af1925050508015611d2f57506040513d601f19601f82011682018060405250810190611d2c91906128b3565b60015b611db2573d8060008114611d5f576040519150601f19603f3d011682016040523d82523d6000602084013e611d64565b606091505b50600081511415611daa576040517f08c379a0000000000000000000000000000000000000000000000000000000008152600401611da190612da2565b60405180910390fd5b805181602001fd5b63150b7a0260e01b7bffffffffffffffffffffffffffffffffffffffffffffffffffffffff1916817bffffffffffffffffffffffffffffffffffffffffffffffffffffffff191614915050611e07565b600190505b949350505050565b60007f01ffc9a7000000000000000000000000000000000000000000000000000000007bffffffffffffffffffffffffffffffffffffffffffffffffffffffff1916827bffffffffffffffffffffffffffffffffffffffffffffffffffffffff1916149050919050565b611e8483838361218a565b600073ffffffffffffffffffffffffffffffffffffffff168373ffffffffffffffffffffffffffffffffffffffff161415611ec757611ec28161218f565b611f06565b8173ffffffffffffffffffffffffffffffffffffffff168373ffffffffffffffffffffffffffffffffffffffff1614611f0557611f0483826121d8565b5b5b600073ffffffffffffffffffffffffffffffffffffffff168273ffffffffffffffffffffffffffffffffffffffff161415611f4957611f4481612345565b611f88565b8273ffffffffffffffffffffffffffffffffffffffff168273ffffffffffffffffffffffffffffffffffffffff1614611f8757611f868282612488565b5b5b505050565b600073ffffffffffffffffffffffffffffffffffffffff168273ffffffffffffffffffffffffffffffffffffffff161415611ffd576040517f08c379a0000000000000000000000000000000000000000000000000000000008152600401611ff490612ee2565b60405180910390fd5b612006816111a4565b15612046576040517f08c379a000000000000000000000000000000000000000000000000000000000815260040161203d90612e02565b60405180910390fd5b61205260008383611c08565b6001600360008473ffffffffffffffffffffffffffffffffffffffff1673ffffffffffffffffffffffffffffffffffffffff16815260200190815260200160002060008282546120a291906130a7565b92505081905550816002600083815260200190815260200160002060006101000a81548173ffffffffffffffffffffffffffffffffffffffff021916908373ffffffffffffffffffffffffffffffffffffffff160217905550808273ffffffffffffffffffffffffffffffffffffffff16600073ffffffffffffffffffffffffffffffffffffffff167fddf252ad1be2c89b69c2b068fc378daa952ba7f163c4a11628f55a4df523b3ef60405160405180910390a461216360008383611c18565b5050565b6000808273ffffffffffffffffffffffffffffffffffffffff163b119050919050565b505050565b600980549050600a600083815260200190815260200160002081905550600981908060018154018082558091505060019003906000526020600020016000909190919091505550565b600060016121e584610b62565b6121ef919061312e565b90506000600860008481526020019081526020016000205490508181146122d4576000600760008673ffffffffffffffffffffffffffffffffffffffff1673ffffffffffffffffffffffffffffffffffffffff168152602001908152602001600020600084815260200190815260200160002054905080600760008773ffffffffffffffffffffffffffffffffffffffff1673ffffffffffffffffffffffffffffffffffffffff168152602001908152602001600020600084815260200190815260200160002081905550816008600083815260200190815260200160002081905550505b6008600084815260200190815260200160002060009055600760008573ffffffffffffffffffffffffffffffffffffffff1673ffffffffffffffffffffffffffffffffffffffff16815260200190815260200160002060008381526020019081526020016000206000905550505050565b60006001600980549050612359919061312e565b90506000600a60008481526020019081526020016000205490506000600983815481106123af577f4e487b7100000000000000000000000000000000000000000000000000000000600052603260045260246000fd5b9060005260206000200154905080600983815481106123f7577f4e487b7100000000000000000000000000000000000000000000000000000000600052603260045260246000fd5b906000526020600020018190555081600a600083815260200190815260200160002081905550600a600085815260200190815260200160002060009055600980548061246c577f4e487b7100000000000000000000000000000000000000000000000000000000600052603160045260246000fd5b6001900381819060005260206000200160009055905550505050565b600061249383610b62565b905081600760008573ffffffffffffffffffffffffffffffffffffffff1673ffffffffffffffffffffffffffffffffffffffff168152602001908152602001600020600083815260200190815260200160002081905550806008600084815260200190815260200160002081905550505050565b82805461251390613218565b90600052602060002090601f016020900481019282612535576000855561257c565b82601f1061254e57805160ff191683800117855561257c565b8280016001018555821561257c579182015b8281111561257b578251825591602001919060010190612560565b5b509050612589919061258d565b5090565b5b808211156125a657600081600090555060010161258e565b5090565b60006125bd6125b884613002565b612fdd565b9050828152602081018484840111156125d557600080fd5b6125e08482856131d6565b509392505050565b60006125fb6125f684613033565b612fdd565b90508281526020810184848401111561261357600080fd5b61261e8482856131d6565b509392505050565b600081359050612635816138e1565b92915050565b60008135905061264a816138f8565b92915050565b60008135905061265f8161390f565b92915050565b6000815190506126748161390f565b92915050565b600082601f83011261268b57600080fd5b813561269b8482602086016125aa565b91505092915050565b600082601f8301126126b557600080fd5b81356126c58482602086016125e8565b91505092915050565b6000813590506126dd81613926565b92915050565b6000602082840312156126f557600080fd5b600061270384828501612626565b91505092915050565b6000806040838503121561271f57600080fd5b600061272d85828601612626565b925050602061273e85828601612626565b9150509250929050565b60008060006060848603121561275d57600080fd5b600061276b86828701612626565b935050602061277c86828701612626565b925050604061278d868287016126ce565b9150509250925092565b600080600080608085870312156127ad57600080fd5b60006127bb87828801612626565b94505060206127cc87828801612626565b93505060406127dd878288016126ce565b925050606085013567ffffffffffffffff8111156127fa57600080fd5b6128068782880161267a565b91505092959194509250565b6000806040838503121561282557600080fd5b600061283385828601612626565b92505060206128448582860161263b565b9150509250929050565b6000806040838503121561286157600080fd5b600061286f85828601612626565b9250506020612880858286016126ce565b9150509250929050565b60006020828403121561289c57600080fd5b60006128aa84828501612650565b91505092915050565b6000602082840312156128c557600080fd5b60006128d384828501612665565b91505092915050565b6000602082840312156128ee57600080fd5b600082013567ffffffffffffffff81111561290857600080fd5b612914848285016126a4565b91505092915050565b60006020828403121561292f57600080fd5b600061293d848285016126ce565b91505092915050565b61294f81613162565b82525050565b61295e81613174565b82525050565b600061296f82613064565b612979818561307a565b93506129898185602086016131e5565b612992816133b1565b840191505092915050565b60006129a88261306f565b6129b2818561308b565b93506129c28185602086016131e5565b6129cb816133b1565b840191505092915050565b60006129e18261306f565b6129eb818561309c565b93506129fb8185602086016131e5565b80840191505092915050565b6000612a14602b8361308b565b9150612a1f826133c2565b604082019050919050565b6000612a3760328361308b565b9150612a4282613411565b604082019050919050565b6000612a5a60268361308b565b9150612a6582613460565b604082019050919050565b6000612a7d60258361308b565b9150612a88826134af565b604082019050919050565b6000612aa0601c8361308b565b9150612aab826134fe565b602082019050919050565b6000612ac360248361308b565b9150612ace82613527565b604082019050919050565b6000612ae660198361308b565b9150612af182613576565b602082019050919050565b6000612b09602c8361308b565b9150612b148261359f565b604082019050919050565b6000612b2c60388361308b565b9150612b37826135ee565b604082019050919050565b6000612b4f602a8361308b565b9150612b5a8261363d565b604082019050919050565b6000612b7260298361308b565b9150612b7d8261368c565b604082019050919050565b6000612b9560208361308b565b9150612ba0826136db565b602082019050919050565b6000612bb8602c8361308b565b9150612bc382613704565b604082019050919050565b6000612bdb60058361309c565b9150612be682613753565b600582019050919050565b6000612bfe60208361308b565b9150612c098261377c565b602082019050919050565b6000612c21602f8361308b565b9150612c2c826137a5565b604082019050919050565b6000612c4460218361308b565b9150612c4f826137f4565b604082019050919050565b6000612c6760318361308b565b9150612c7282613843565b604082019050919050565b6000612c8a602c8361308b565b9150612c9582613892565b604082019050919050565b612ca9816131cc565b82525050565b6000612cbb82856129d6565b9150612cc782846129d6565b9150612cd282612bce565b91508190509392505050565b6000602082019050612cf36000830184612946565b92915050565b6000608082019050612d0e6000830187612946565b612d1b6020830186612946565b612d286040830185612ca0565b8181036060830152612d3a8184612964565b905095945050505050565b6000602082019050612d5a6000830184612955565b92915050565b60006020820190508181036000830152612d7a818461299d565b905092915050565b60006020820190508181036000830152612d9b81612a07565b9050919050565b60006020820190508181036000830152612dbb81612a2a565b9050919050565b60006020820190508181036000830152612ddb81612a4d565b9050919050565b60006020820190508181036000830152612dfb81612a70565b9050919050565b60006020820190508181036000830152612e1b81612a93565b9050919050565b60006020820190508181036000830152612e3b81612ab6565b9050919050565b60006020820190508181036000830152612e5b81612ad9565b9050919050565b60006020820190508181036000830152612e7b81612afc565b9050919050565b60006020820190508181036000830152612e9b81612b1f565b9050919050565b60006020820190508181036000830152612ebb81612b42565b9050919050565b60006020820190508181036000830152612edb81612b65565b9050919050565b60006020820190508181036000830152612efb81612b88565b9050919050565b60006020820190508181036000830152612f1b81612bab565b9050919050565b60006020820190508181036000830152612f3b81612bf1565b9050919050565b60006020820190508181036000830152612f5b81612c14565b9050919050565b60006020820190508181036000830152612f7b81612c37565b9050919050565b60006020820190508181036000830152612f9b81612c5a565b9050919050565b60006020820190508181036000830152612fbb81612c7d565b9050919050565b6000602082019050612fd76000830184612ca0565b92915050565b6000612fe7612ff8565b9050612ff3828261324a565b919050565b6000604051905090565b600067ffffffffffffffff82111561301d5761301c613382565b5b613026826133b1565b9050602081019050919050565b600067ffffffffffffffff82111561304e5761304d613382565b5b613057826133b1565b9050602081019050919050565b600081519050919050565b600081519050919050565b600082825260208201905092915050565b600082825260208201905092915050565b600081905092915050565b60006130b2826131cc565b91506130bd836131cc565b9250827fffffffffffffffffffffffffffffffffffffffffffffffffffffffffffffffff038211156130f2576130f16132f5565b5b828201905092915050565b6000613108826131cc565b9150613113836131cc565b92508261312357613122613324565b5b828204905092915050565b6000613139826131cc565b9150613144836131cc565b925082821015613157576131566132f5565b5b828203905092915050565b600061316d826131ac565b9050919050565b60008115159050919050565b60007fffffffff0000000000000000000000000000000000000000000000000000000082169050919050565b600073ffffffffffffffffffffffffffffffffffffffff82169050919050565b6000819050919050565b82818337600083830152505050565b60005b838110156132035780820151818401526020810190506131e8565b83811115613212576000848401525b50505050565b6000600282049050600182168061323057607f821691505b6020821081141561324457613243613353565b5b50919050565b613253826133b1565b810181811067ffffffffffffffff8211171561327257613271613382565b5b80604052505050565b6000613286826131cc565b91507fffffffffffffffffffffffffffffffffffffffffffffffffffffffffffffffff8214156132b9576132b86132f5565b5b600182019050919050565b60006132cf826131cc565b91506132da836131cc565b9250826132ea576132e9613324565b5b828206905092915050565b7f4e487b7100000000000000000000000000000000000000000000000000000000600052601160045260246000fd5b7f4e487b7100000000000000000000000000000000000000000000000000000000600052601260045260246000fd5b7f4e487b7100000000000000000000000000000000000000000000000000000000600052602260045260246000fd5b7f4e487b7100000000000000000000000000000000000000000000000000000000600052604160045260246000fd5b6000601f19601f8301169050919050565b7f455243373231456e756d657261626c653a206f776e657220696e646578206f7560008201527f74206f6620626f756e6473000000000000000000000000000000000000000000602082015250565b7f4552433732313a207472616e7366657220746f206e6f6e20455243373231526560008201527f63656976657220696d706c656d656e7465720000000000000000000000000000602082015250565b7f4f776e61626c653a206e6577206f776e657220697320746865207a65726f206160008201527f6464726573730000000000000000000000000000000000000000000000000000602082015250565b7f4552433732313a207472616e736665722066726f6d20696e636f72726563742060008201527f6f776e6572000000000000000000000000000000000000000000000000000000602082015250565b7f4552433732313a20746f6b656e20616c7265616479206d696e74656400000000600082015250565b7f4552433732313a207472616e7366657220746f20746865207a65726f2061646460008201527f7265737300000000000000000000000000000000000000000000000000000000602082015250565b7f4552433732313a20617070726f766520746f2063616c6c657200000000000000600082015250565b7f4552433732313a206f70657261746f7220717565727920666f72206e6f6e657860008201527f697374656e7420746f6b656e0000000000000000000000000000000000000000602082015250565b7f4552433732313a20617070726f76652063616c6c6572206973206e6f74206f7760008201527f6e6572206e6f7220617070726f76656420666f7220616c6c0000000000000000602082015250565b7f4552433732313a2062616c616e636520717565727920666f7220746865207a6560008201527f726f206164647265737300000000000000000000000000000000000000000000602082015250565b7f4552433732313a206f776e657220717565727920666f72206e6f6e657869737460008201527f656e7420746f6b656e0000000000000000000000000000000000000000000000602082015250565b7f4552433732313a206d696e7420746f20746865207a65726f2061646472657373600082015250565b7f4552433732313a20617070726f76656420717565727920666f72206e6f6e657860008201527f697374656e7420746f6b656e0000000000000000000000000000000000000000602082015250565b7f2e6a736f6e000000000000000000000000000000000000000000000000000000600082015250565b7f4f776e61626c653a2063616c6c6572206973206e6f7420746865206f776e6572600082015250565b7f4552433732314d657461646174613a2055524920717565727920666f72206e6f60008201527f6e6578697374656e7420746f6b656e0000000000000000000000000000000000602082015250565b7f4552433732313a20617070726f76616c20746f2063757272656e74206f776e6560008201527f7200000000000000000000000000000000000000000000000000000000000000602082015250565b7f4552433732313a207472616e736665722063616c6c6572206973206e6f74206f60008201527f776e6572206e6f7220617070726f766564000000000000000000000000000000602082015250565b7f455243373231456e756d657261626c653a20676c6f62616c20696e646578206f60008201527f7574206f6620626f756e64730000000000000000000000000000000000000000602082015250565b6138ea81613162565b81146138f557600080fd5b50565b61390181613174565b811461390c57600080fd5b50565b61391881613180565b811461392357600080fd5b50565b61392f816131cc565b811461393a57600080fd5b5056fea264697066735822122008873f8589f5d7e381ef541703b1e8235f2f3fdc5ed6f9f498674e5e24d4799664736f6c63430008040033",
  "linkReferences": {},
  "deployedLinkReferences": {}
}